:020000040800F2
:100000006804002045010008B90F0008BB0F000874
:10001000BF0F0008C30F0008C70F00080000000052
:10002000000000000000000000000000CB0F0008EE
:10003000CD0F000800000000CF0F0008D10F00080E
:100040005F0100085F0100085F0100085F01000810
:100050005F0100085F0100085F0100085F01000800
:100060005F0100085F0100085F0100085F010008F0
:100070005F0100085F0100085F0100085F010008E0
:100080005F0100085F0100085F0100085F010008D0
:100090005F0100085F0100085F0100085F010008C0
:1000A0005F0100085F0100085F0100085F010008B0
:1000B0005F0100085F0100085F0100085F010008A0
:1000C0005F0100085F0100085F0100085F01000890
:1000D0005F0100085F0100085F0100085F01000880
:1000E0005F0100085F0100085F0100085F01000870
:1000F0005F0100085F0100085F0100085F01000860
:100100005F0100085F0100085F0100085F0100084F
:100110005F0100085F0100085F0100085F0100083F
:100120005F0100085F0100085F0100085F0100082F
:10013000DFF80CD001F090F9004800475B1100088F
:10014000680400200648804706480047FEE7FEE7AF
:10015000FEE7FEE7FEE7FEE7FEE7FEE7FEE7FEE777
:1001600047020008310100080CB500200190009002
:100170006C48006840F480306A49086000BF6948F4
:10018000006800F4003000900198401C0190009835
:1001900018B90198B0F5A06FF1D16248006800F479
:1001A000003010B10120009001E000200090009884
:1001B000012843D15C48006840F010005A490860AB
:1001C0000846006820F0030008600846006840F018
:1001D0000200086053484068524948600846406839
:1001E00048600846406840F48060486008464068BF
:1001F00020F47C1048600846406840F4E8104860ED
:100200000846006840F08070086000BF45480068FC
:1002100000F000700028F9D04248406820F0030048
:10022000404948600846406840F00200486000BF0E
:100230003C48406800F00C000828F9D10CBD10B50E
:10024000FFF792FF10BD10B53648006840F001007E
:1002500034490860084640683449084031494860DC
:1002600008460068324908402E4908600846006880
:1002700020F4802008600846406820F4FE004860B2
:100280004FF41F008860FFF7DAFF4FF00060294944
:10029000086010BD10B5002100200022214B5B68D2
:1002A00003F00C0121B1042906D0082928D107E068
:1002B000214B224C236027E01F4B204C236023E07E
:1002C000184B5B6803F47010164B5B6803F48032C4
:1002D000022303EB904022B9194B4343174C236090
:1002E0000DE0104B5B6803F4003323B1144B434320
:1002F000124C236003E0104B4343104C236003E097
:100300000D4B0E4C236000BF00BF064B5B68C3F370
:1003100003130C4CE15C094B1B68CB40074C23607A
:1003200010BD000000100240002002400000FFF855
:10033000FFFFF6FE08ED00E000127A00000000204A
:1003400000093D000400002010B50446CC4884425A
:1003500008D10121042000F02DFB0021042000F031
:1003600029FB46E0C748844208D10121082000F05B
:1003700021FB0021082000F01DFB3AE0C248844226
:1003800008D10121102000F015FB0021102000F001
:1003900011FB2EE0BD48844208D10121202000F04D
:1003A00009FB0021202000F005FB22E0B848844230
:1003B00008D10121402000F0FDFA0021402000F08A
:1003C000F9FA16E0B348844208D10121802000F0F8
:1003D000F1FA0021802000F0EDFA0AE0AE488442F4
:1003E00007D10121801500F0E5FA0021A01500F0E9
:1003F000E1FA10BD10B50121084600F0DBFA00213A
:10040000012000F0D7FA10BD2DE9F0410246002589
:100410000026002000230024002791F803C00CF0E0
:100420000F0591F803C00CF0100CBCF1000F03D0C5
:1004300091F802C04CEA050591F800C0BCF1000F2C
:1004400031D0146800202BE04FF0010C0CFA00F3BF
:10045000B1F800C00CEA03069E4220D183004FF0A1
:100460000F0C0CFA03F7BC4305FA03FC4CEA040436
:1004700091F803C0BCF1280F06D14FF0010C0CFA23
:1004800000FCC2F814C00AE091F803C0BCF1480FA8
:1004900005D14FF0010C0CFA00FCC2F810C0401C52
:1004A0000828D1D31460B1F800C0BCF1FF0F34DDCF
:1004B000546800202EE000F1080C4FF0010808FA03
:1004C0000CF3B1F800C00CEA03069E4221D1830070
:1004D0004FF00F0C0CFA03F7BC4305FA03FC4CEA8F
:1004E000040491F803C0BCF1280F05D100F1080CF9
:1004F00008FA0CF8C2F8148091F803C0BCF1480F58
:1005000007D100F1080C4FF0010808FA0CF8C2F806
:100510001080401C0828CED35460BDE8F0814FF60F
:10052000FF710180022181700421C1707047024671
:10053000002093680B400BB1012000E000207047C1
:100540000146886880B2704702460020D3680B409D
:100550000BB1012000E0002070470146C86880B25E
:10056000704701617047416170470AB1016100E065
:1005700041617047C16070474FF480320A43826125
:100580008161826182698269704702460020434B23
:1005900018684FF68073184040EA021008433F4B3A
:1005A000186070473E49C8617047F0B50A4600239D
:1005B00000240021002500F00046B6F1004F02D1D2
:1005C000364EF16901E0354E7168C0F3034583B2E0
:1005D00000F44016B6F5401F08D121F070612F4E8F
:1005E000766826F070662D4F7E6012E000F480166B
:1005F000B6F5801F06D1032606FA05F4A14341F0A3
:10060000706106E0460D360103FA06F6B14341F08B
:10061000706122B1460D360103FA06F6314300F04F
:100620000046B6F1004F02D11C4EF16101E01B4EB5
:100630007160F0BD30B500228B071C0F0F2303FA49
:1006400004F2164B08338C1053F824309343134CA8
:1006500008348D1044F8253023468C1053F824308C
:100660008C07240F00FA04F423430C4C08348D103B
:1006700044F8253030BD0A49DC310860704700007D
:1006800000080140000C014000100140001401402E
:1006900000180140001C0140002001400000014002
:1006A00000002042DF48006840F00100DD4908609A
:1006B00008464068DC490840DA4948600846006856
:1006C000DA490840D74908600846006820F48020CD
:1006D00008600846406820F4FE0048604FF41F00A0
:1006E00088607047CF49096821F48031CD4A116094
:1006F0001146096821F480211160B0F5803F03D0D4
:10070000B0F5802F0ED106E0C649096841F480316A
:10071000C44A116007E0C349096841F4A021C14AF5
:10072000116000E000BF00BF704710B50146002215
:10073000002300204A11012A02D1BA4C236806E0A6
:10074000022A02D1B74C236A01E0B64C636A01F079
:100750001F02012494401C400CB1012000E0002045
:1007600010BD38B5002000900024002500BF3120C6
:10077000FFF7DBFF05460098401C00900098B0F59D
:10078000A06F01D0002DF2D03120FFF7CEFF08B1CD
:10079000012400E00024204638BD01460020A14A83
:1007A000106820F0F80040EAC10010607047A049CE
:1007B00008607047024600209A4B586820F47C106D
:1007C00042EA01031843974B5860704798490866FE
:1007D000704701460020934A506820F00300084308
:1007E000506070478F48406800F00C007047014629
:1007F00000208C4A506820F0F00008435060704799
:1008000001460020874A506820F4E06008435060A9
:10081000704701460020834A506820F4605040EA47
:10082000C1005060704729B17E4A527A02437D4B25
:100830005A7204E07B4A527A82437A4B5A7270476A
:100840007B49D8310860704701460020754A5068DE
:1008500020F440400843506070470021714A203224
:100860001170704A82F82010012802D004280AD1A1
:1008700004E001216B4A2032117005E00521694A2C
:100880002032117000E000BF00BF70476949086066
:1008900070476449096A0143624A116270476549B9
:1008A00044390860704730B500210022002400233D
:1008B0005C4D6D6805F00C0121B1042905D00829B3
:1008C00023D105E05C4D056022E05B4D05601FE033
:1008D000544D6D6805F47012524D6D6805F4803406
:1008E000022505EB92421CB9544D554305600BE0BF
:1008F0004C4D6D6805F400351DB1504D55430560F4
:1009000002E04D4D5543056002E04B4D056000BFD0
:1009100000BF444D6D6805F0F0010909484D6B5C5E
:100920000568DD4045603F4D6D6805F4E061090AEA
:10093000434D6B5C4568DD4085603A4D6D6805F45C
:100940006051C90A3E4D6B5C4568DD40C560354D60
:100950006D6805F44041890B3A4D6B5CC568B5FB89
:10096000F3F5056130BD29B12E4A526902432D4B82
:100970005A6104E02B4A526982432A4B5A617047FC
:1009800029B1284A92690243264B9A6104E0254A1C
:1009900092698243234B9A61704729B1214AD269F7
:1009A0000243204BDA6104E01E4AD26982431D4BA8
:1009B000DA61704729B11B4AD2680243194BDA60E9
:1009C00004E0184AD2688243164BDA60704729B1B6
:1009D000144A12690243134B1A6104E0114A126966
:1009E0008243104B1A6170471249403908607047C2
:1009F0000F49C86470470B49C87170470948406A7D
:100A000040F0807007494862704701460020054A5F
:100A100092680A400AB1012000E0002070470149B5
:100A200088727047001002400000FFF8FFFFF6FEDA
:100A3000000042428004424200127A0000093D0058
:100A4000140000202400002010B50446FB48844216
:100A500009D101218803FFF7ADFF00214FF4804049
:100A6000FFF7A8FF32E0F648844209D1012148048B
:100A7000FFF7ADFF00214FF40030FFF7A8FF25E09E
:100A8000F048844209D101218804FFF7A0FF00212A
:100A90004FF48020FFF79BFF18E0EB48844209D118
:100AA0000121C804FFF793FF00214FF40020FFF756
:100AB0008EFF0BE0E548844208D101210805FFF7CD
:100AC00086FF00214FF48010FFF781FF10BD2DE954
:100AD000F04786B005460E460024A24600BFA14658
:100AE0000027B08900B100BF2F462C8A4CF6FF705A
:100AF0000440F08804432C82AC894EF6F310044085
:100B0000B08831890843718908430443AC81AC8AB9
:100B10004FF6FF400440B0890443AC8201A8FFF7C0
:100B2000C2FEC648874202D1DDF810A001E0DDF820
:100B30000CA0A88900F4004040B10AEBCA0000EB09
:100B40000A1031684900B0FBF1F807E00AEBCA006F
:100B500000EB0A1031688900B0FBF1F86420B8FBA3
:100B6000F0F004012009642101FB1089A88900F438
:100B7000004040B1322000EBC900B0FBF1F000F0C2
:100B80000700044308E0322000EB09106421B0FBA9
:100B9000F1F000F00F0004432C8106B0BDE8F087AF
:100BA0004FF41651016000218180C18001810C2128
:100BB000418100218181704710B502460020108AD2
:100BC0004FF2FF0318400B884C8823438C88234343
:100BD000CC8823431843108210BD0021018041803E
:100BE0008180C180704721B1828942F400528281A4
:100BF00004E082894DF6FF731A4082817047F0B598
:100C00000346002400260025002040F66A17B9425A
:100C100000D100BF1846C1F3421401F01F0601279E
:100C200007FA06F5012C01D10C3004E0022C01D1A9
:100C3000103000E014301AB107682F43076002E05B
:100C40000768AF430760F0BD1AB1838A0B43838204
:100C500002E0838A8B4383827047028A4FF6F073E7
:100C60001A400282028A0A430282704782894FF246
:100C7000FF731A40828182890A438281704721B1C1
:100C8000828942F00202828104E082894FF6FD737C
:100C90001A4082817047028A4FF6DF731A4002823F
:100CA000028A0A430282704721B1028A42F48042DA
:100CB000028204E0028A4BF6FF731A4002827047F8
:100CC000C1F308028280704701468888C0F308009B
:100CD0007047818941F0010181817047028BD2B256
:100CE0000283028B42EA012202837047028B02F4E4
:100CF0007F420283028B0A430283704721B1828ABA
:100D000042F02002828204E0828A4FF6DF731A40AA
:100D10008282704721B1828A42F01002828204E00E
:100D2000828A4FF6EF731A408282704721B1828A1D
:100D300042F00802828204E0828A4FF6F7731A407A
:100D40008282704721B1828942F40042828103E0AD
:100D50008289C2F30E028281704721B1828A42F4F5
:100D60000062828204E0828A4FF2FF731A4082821C
:100D70007047828A4FF6FB731A408282828A0A4346
:100D80008282704721B1828A42F00202828204E0AC
:100D9000828A4FF6FD731A40828270470246002015
:100DA000B1F5007F00D100BF13880B400BB10120CB
:100DB00000E00020704701F40072B2F5007F00D11E
:100DC00000BFCA430280704770B50246002400236A
:100DD0000025002040F66A16B14200D100BFC1F3E1
:100DE000421501F01F03012606FA03F3012D02D17B
:100DF0009689334006E0022D02D1168A334001E085
:100E0000968A33400C12012606FA04F41688344000
:100E100013B10CB1012000E0002070BD10B500221C
:100E2000002340F66A14A14200D100BF0A12012437
:100E30009440A3B2DC43048010BD000000380140A0
:100E40000044004000480040004C0040005000407A
:100E500001B500BF0098411E00910028FAD108BDDD
:100E600008B501210420FFF78BFD3E480068009083
:100E70004FF40070ADF8000018208DF803006946AB
:100E80003948FFF7C1FA4FF48060ADF80000042044
:100E90008DF8030069463448FFF7B6FA08BD1FB560
:100EA0000446FFF7DDFF01218803FFF769FD2D4BA5
:100EB0001B1D0FCB8DE80F00009469462B48FFF7F0
:100EC00006FE01212948FFF78EFE012240F225513E
:100ED0002648FFF794FE012240F224412348FFF701
:100EE0008EFE1FBD38B504460D4620480088009090
:100EF00029462046FFF7E4FE00BF40212046FFF7C9
:100F00004DFF0028F9D038BD70B506460C460025C7
:100F100000BF615D3046FFF7E5FF6D1C605D002896
:100F2000F7D100BF40213046FFF738FF0028F9D045
:100F300070BD2DE9F04107460D461646002405E038
:100F4000295D3846FFF7CEFF601C84B2B442F7DB60
:100F500000BF40213846FFF721FF0028F9D0BDE847
:100F6000F0810000501900080008014000380140DD
:100F700001B500BF0098411E00910028FAD108BDBC
:100F800038B504460D460B4800880090E1B2094888
:100F9000FFF7A8FF204638BD10B5044600BF20214A
:100FA0000448FFF7FBFE0028F9D00248FFF78CFE4B
:100FB00010BD000000380140704700BFFEE700BFD1
:100FC000FEE700BFFEE700BFFEE7704770477047CF
:100FD0007047000001B500BF0098411E0091002835
:100FE000FAD108BD00B585B001210420FFF7C8FC87
:100FF0007648006804904FF40070ADF81000182097
:101000008DF8130004A97248FFF7FEF94FF48060D1
:10101000ADF8100004208DF8130004A96C48FFF708
:10102000F3F901218803FFF7ABFC684B1B1D0FCBC5
:101030008DE80F0069466748FFF749FD01216548C3
:10104000FFF7D1FD012240F225516248FFF7D7FD9D
:1010500005B000BD014608460CE00278412A06DBD7
:1010600002785A2A03DC027842F0600200E002783B
:101070000270401C0278002AEFD1084670471FB565
:101080005548FFF7E7FF6B4603AA54A1524800F00A
:1010900023F902285CD154A1684600F00FF908B981
:1010A00000240AE051A1684600F008F908B90124BB
:1010B00003E04FA000F03AFC1FBD9DF80C00622831
:1010C0002DD0672816D072283ED120214E48FFF738
:1010D0003BFAA04204D169464CA000F07FFB08E037
:1010E000224620214848FFF740FA69464BA000F00D
:1010F00075FBE1E701214448FFF726FAA04204D13D
:1011000069464BA000F06AFB08E0224601213E48F8
:10111000FFF72BFA69464AA000F060FBCCE70221FA
:101120003948FFF711FAA04204D1694649A000F0FE
:1011300055FB08E0224602213348FFF716FA6946BC
:1011400048A000F04BFBB7E74BA000F0EFFBB3E784
:101150004EA000F0EBFB00BFAEE708B500BF0121D9
:101160000820FFF70DFC194814300068009069460C
:101170002548FFF749F900BF00BF01210820FFF70C
:10118000FFFB124818300068009069461E48FFF7C0
:101190003BF900BF00BF01210820FFF7F1FB0B481E
:1011A0001C300068009069461748FFF72DF900BF12
:1011B000FFF718FF3BA000F0B9FB00BF3E4A31210A
:1011C000054800F095FBFFF75AFFF7E764190008A0
:1011D0000008014000380140300000206C65642D9B
:1011E00025632D25730000006F6E00006F6666009A
:1011F0004572726F723A20496E76616C6964207331
:101200007461747573000000000C01404C4544206B
:10121000522069732025730A000000004C454420C9
:1012200052207475726E65642025730A00000000F8
:101230004C454420472069732025730A00000000B4
:101240004C45442047207475726E65642025730AEE
:10125000000000004C454420422069732025730A99
:10126000000000004C45442042207475726E656495
:101270002025730A000000004572726F723A206EDA
:101280006F2073756368204C454400004572726F8F
:10129000723A20496E76616C696420636F6D6D618E
:1012A0006E64000053797374656D20696E697469AA
:1012B000616C697A656400002800002010B5002286
:1012C00000E0521C835C8C5CA34201D1002BF8D15E
:1012D000D8B2E1B2401A10BD0FB400B58DB010A95C
:1012E00009900B9000914FF0FF300A9000200C9075
:1012F00005480690054807906A4609A80F9900F02E
:101300007DF80DB05DF814FB1914000837140008BF
:101310002DE9FF5FD2E901A74FF0000891699946D6
:101320001446DDF838B0464601988847054659EA24
:101330000B0005D009E0A169761C01988847054695
:10134000216A284688470028F5D1681C03D05FEA47
:10135000CA7005D015E04FF0FF3004B0BDE8F09F33
:101360002068011D2160D0F800800AE05FEACA70A1
:1013700001D108F8015BA169761C7F1E019888479E
:101380000546002F1ADD681C18D0B9F1000F0DD0EA
:10139000E81705EBD060421120F01F0059F8221029
:1013A0002A1A012090400142E0D107E0BBF1000F72
:1013B000DCD1216A284688470028D7D0E169019806
:1013C0008847BBF1000F07D1002E05DD5FEACA7028
:1013D00002D1002188F80010A068B84203DDBBF1FB
:1013E000000F03D017B16FF00100B6E73046B4E745
:1013F000026811441378016018467047D1600449AF
:1014000051610449116200211161114600F03CB89C
:10141000F11300087D140008426842B1016811F818
:10142000013B23B1521EC0E900121846704701214A
:10143000C160881E704742685AB1C368016843B9E9
:1014400083688B4205D0491E521CC0E9001200205F
:1014500070474FF0FF307047064C074D06E0E068DC
:1014600040F0010394E8070098471034AC42F6D3EB
:10147000FEF762FEC4190008E4190008C0B24FF478
:10148000F05100F097B900002DE9F34F8BB04FF009
:10149000000801F10C000C464FF0010B46460DF11F
:1014A000080A01906269012101989047051E2DD01C
:1014B000252D2CD0216A8847C0B16269012101988D
:1014C0009047216A88470028F7D1411E6269019838
:1014D000904700E0761CA1690B988847216A8847ED
:1014E0000028F7D1E1690B988847DBE7A1690B98E1
:1014F00088470746A84201D1761CD3E7E1690B98DB
:1015000088477F1C02D1B8F1000F6FD046E1002759
:1015100062693D463946019890472A2804D162699C
:101520000121019890470125DFF884926269012129
:1015300001989047A0F130010A290AD24F45E5DC15
:1015400007EB870100EB4107303FDFD445F0100582
:10155000ECE7E90601D46FF000476C280AD04C286C
:1015600014D0682815D06A280DD074281CD07A2889
:101570001AD01DE062690121019890476C2802D0C1
:1015800045F0040514E045F002050DE045F02005A6
:101590000AE06269012101989047682802D045F06D
:1015A000080505E045F4006562690121019890474E
:1015B000C4E9015765283DD019DC58287AD00CDCE5
:1015C000452837D004DC252826D0412831D131E008
:1015D00046282FD047282CD12CE05B2877D06128D3
:1015E00028D063287CD0642823D15AE0D0E06F282B
:1015F00048D008DC66281DD067281BD0692821D078
:101600006E2816D127E0702845D0732868D0752839
:1016100047D078280DD14DE0A1690B988847054641
:1016200025283FF469AFE1690B9888476D1C3FF4AA
:101630006AAFB3E023466A466FF001000B99AFF33F
:1016400000809EE045F040006060A80723464FF010
:10165000000236D43EE0E8077FF447AF2068011D62
:1016600021600068290501D506701BE7290701D50F
:10167000068017E7A90703D5F117C0E9006111E754
:1016800006600FE745F040006060A80723464FF072
:10169000080216D41EE040F60E0125EA0100606043
:1016A00016E045F040006060A80723464FF00A02AC
:1016B00007D40FE045F040006060A80708D5234636
:1016C00010226FF001000B99AFF3008059E007E0A2
:1016D000234610226FF001000B99AFF3008050E019
:1016E0004FF000094F464B46632802D05B2806D0D6
:1016F00040E0E80601D40120A06001273AE06269D9
:101700000121019890475E2805D14FF001096269D7
:10171000494601989047216939B900210A46534644
:1017200043F82120491C0829FADBB0B3216969B9C3
:10173000C11700EBD16253110AEB830122F01F02A3
:10174000821A01200B68904003430B6062690121FB
:10175000019890475D28E8D1B9F1000F09D0002029
:10176000514651F82020D24341F82020401C08283F
:10177000F7DB02AB224600976FF001000B99FFF7F1
:10178000C7FD00280CDA401C08D1BBF1000F05D0C2
:101790004FF0FF300DB0BDE8F08FFFE74046F9E7AE
:1017A000E90701D108F1010806444FF0000B79E682
:1017B000CCCCCC0C7F2801D9002208E0064A02EBF1
:1017C0005002C007127800D1120902F00F02012066
:1017D0009040084070470000841900080FB4054B82
:1017E00010B503A9044A029800F017F810BC5DF880
:1017F00014FB0000810F00082C00002002E008C844
:10180000121F08C1002AFAD170477047002001E07A
:1018100001C1121F002AFBD170472DE9F84F9946EC
:10182000924688460546002706E025280AD05146FC
:101830004A4690476D1C7F1C28780028F5D1384611
:10184000BDE8F88F002315F8011F18462E2915D181
:1018500015F8011F04232A290DD06FF02F022978D3
:10186000A1F13004092C09D800EB800002EB400004
:1018700008446D1CF3E758F8040B6D1C2A78002A05
:10188000DDD0632A07D0732A0FD0104651464A464E
:1018900090477F1C2AE018F8042B8DF800200021C7
:1018A0008DF801106E46012103E058F8046B4FF0EB
:1018B000FF315A074FF0000401D409E0641C844250
:1018C0000BDA8C42FADB325D002AF7D105E0641CAA
:1018D0008C42FCDB305D0028F9D1274404E016F887
:1018E000010B51464A469047641EF8D26D1CA3E78F
:1018F0002DE9F04117460D4604460646012913DD41
:101900003846FFF749FB411C0CD0C0B204F8010B6C
:101910000A2802D06D1E012DF2DC00202070304616
:10192000BDE8F081B442F8D10020F9E710B50446D3
:1019300001E0FFF725FB14F8010B04490028F8D15A
:10194000BDE810400A20FFF71BBB00002C00002060
:1019500000000300000000000000000000000C0078
:10196000000000000000030000C2010000000000B1
:1019700000000C0000000000200003100100031014
:1019800002000310DDDDDDDDDCBBBBDDDDDDDDDD2B
:10199000DDDDDDDD988888888888888877777777A7
:1019A0007788888885555556666666666666666673
:1019B000666888888333333222222222222222221E
:1019C0002228888DE4190008000000203000000063
:1019D000FC170008141A000830000020380400002A
:1019E0000C18000800A24A040000000000000000DB
:1019F00001020304060708090000000001020304B5
:101A0000010203040607080902040608000000009A
:041A100000000000D2
:0400000508000131BD
:00000001FF
