:020000040800F2
:1000000040060020450100080D1800080F180008E0
:1000100013180008171800081B180008000000003B
:100020000000000000000000000000001F18000891
:1000300021180008000000002318000825180008F7
:100040005F0100085F0100085F0100085F01000810
:100050005F0100085F0100085F0100085F01000800
:100060005F0100085F0100085F0100085F010008F0
:100070005F0100085F0100085F0100085F010008E0
:100080005F0100085F0100085F0100085F010008D0
:100090005F0100085F0100085F0100085F010008C0
:1000A0005F0100085F0100085F0100085F010008B0
:1000B0005F0100085F0100085F0100085F010008A0
:1000C0005F0100085F0100085F0100085F01000890
:1000D0005F0100085F0100085F0100085F01000880
:1000E0005F0100085F0100085F0100085F01000870
:1000F0005F0100085F0100085F0100085F01000860
:100100005F0100085F0100085F0100085F0100084F
:100110005F0100085F0100085F0100085F0100083F
:100120005F0100085F0100085F0100085F0100082F
:10013000DFF80CD001F092FF00480047571E00087E
:10014000400600200648804706480047FEE7FEE7D5
:10015000FEE7FEE7FEE7FEE7FEE7FEE7FEE7FEE777
:1001600047020008310100080CB500200190009002
:100170006C48006840F480306A49086000BF6948F4
:10018000006800F4003000900198401C0190009835
:1001900018B90198B0F5A06FF1D16248006800F479
:1001A000003010B10120009001E000200090009884
:1001B000012843D15C48006840F010005A490860AB
:1001C0000846006820F0030008600846006840F018
:1001D0000200086053484068524948600846406839
:1001E00048600846406840F48060486008464068BF
:1001F00020F47C1048600846406840F4E8104860ED
:100200000846006840F08070086000BF45480068FC
:1002100000F000700028F9D04248406820F0030048
:10022000404948600846406840F00200486000BF0E
:100230003C48406800F00C000828F9D10CBD10B50E
:10024000FFF792FF10BD10B53648006840F001007E
:1002500034490860084640683449084031494860DC
:1002600008460068324908402E4908600846006880
:1002700020F4802008600846406820F4FE004860B2
:100280004FF41F008860FFF7DAFF4FF00060294944
:10029000086010BD10B5002100200022214B5B68D2
:1002A00003F00C0121B1042906D0082928D107E068
:1002B000214B224C236027E01F4B204C236023E07E
:1002C000184B5B6803F47010164B5B6803F48032C4
:1002D000022303EB904022B9194B4343174C236090
:1002E0000DE0104B5B6803F4003323B1144B434320
:1002F000124C236003E0104B4343104C236003E097
:100300000D4B0E4C236000BF00BF064B5B68C3F370
:1003100003130C4CE15C094B1B68CB40074C23607A
:1003200010BD000000100240002002400000FFF855
:10033000FFFFF6FE08ED00E000127A00000000204A
:1003400000093D000400002010B50446FA4884422C
:1003500008D10121401500F057FF0021601500F081
:1003600053FF17E0F548844208D10121001500F041
:100370004BFF0021201500F047FF0BE0F0488442BE
:1003800008D10121C80300F03FFF00214FF40040D5
:1003900000F03AFF10BD30B502460020002350683F
:1003A000E84C20400D790C6844EA05242043506055
:1003B0009068E54C2040D1E902542C434D7944EA41
:1003C000450420439060D06A20F470000C7C641EC9
:1003D000E4B2234340EA0350D06230BD0021016003
:1003E000017141718160C16001210174704721B1C7
:1003F000826842F00102826003E0826822F001021A
:100400008260704721B1826842F48072826003E0AA
:10041000826822F480728260704710B50023CBB2EC
:100420001AB144681C43446002E044689C43446041
:1004300010BD816841F008018160704701460020CD
:100440008A6802F008020AB1012000E0002070472B
:10045000816841F0040181607047014600208A688C
:1004600002F004020AB1012000E00020704721B12F
:10047000826842F4A002826003E0826822F4A00253
:1004800082607047014600208A6802F480020AB147
:10049000012000E00020704710B50A46002100232B
:1004A000416821F46041531E41EA4331416010BD6F
:1004B00021B1426842F40062426003E0426822F4E3
:1004C000006242607047F0B504460D4600200021EE
:1004D000092D11DDE068A5F10A0606EB460707269F
:1004E00006FA07F18843A5F10A0606EB460603FA69
:1004F00006F10843E0600CE0206905EB450707269C
:1005000006FA07F1884305EB450603FA06F10843AE
:100510002061072A0FDA606B561E06EB86071F263E
:1005200006FA07F18843561E06EB860605FA06F121
:100530000843606322E00D2A0FDA206BD61F06EB1A
:1005400086071F2606FA07F18843D61F06EB8606A4
:1005500005FA06F10843206310E0E06AA2F10D06F7
:1005600006EB86071F2606FA07F18843A2F10D065F
:1005700006EB860605FA06F10843E062F0BD21B1FC
:10058000826842F48012826003E0826822F4801262
:10059000826070470146C86C80B2704766484C3034
:1005A0000068704721B1426842F48062426003E013
:1005B000426822F480624260704721B1426842F48E
:1005C0008052426003E0426822F4805242607047E9
:1005D0000A460021816821F4E0411143816070479F
:1005E00021B1826842F40042826003E0826822F412
:1005F00000428260704721B1826842F40212826038
:1006000003E0826822F402128260704701460020F3
:100610008A6802F400120AB1012000E0002070474D
:10062000F0B504461546002000220026092911DDF8
:10063000E068A1F10A0707EB470C072707FA0CF25D
:100640009043A1F10A0707EB470703FA07F21043AB
:10065000E0600CE0206901EB410C072707FA0CF27F
:10066000904301EB410703FA07F210432061A06BAE
:10067000C0F30156EF1C06F1010CA7EB0C0707EBCA
:10068000870C1F2707FA0CF29043EF1C06F1010CB0
:10069000A7EB0C0707EB870701FA07F21043A063EB
:1006A000F0BD10B50A4600210023816B21F44011F2
:1006B000531E41EA0351816310BD08B50023009326
:1006C0000090009B0B440093009B1A6008BD08B586
:1006D000024600200090009201F12800009B18447F
:1006E00000900098006880B208BD0A460021416869
:1006F000164B194011434160704741628262704756
:100700000A460021416821F01F01114341607047F2
:1007100040B109490831096841F40001064A08322C
:10072000116007E004490831096821F40001024A18
:100730000832116070470000002401400028014089
:10074000003C0140FFFEF0FFFDF7F1FFFFFD3FFF22
:100750000246002013680B400BB1012000E000208E
:100760007047CA430260704770B5024600200023FC
:1007700000240B125568CEB205EA060415681D4028
:1007800015B10CB1012000E0002070BD00220A125A
:10079000D34303607047000010B50446CC48844240
:1007A00008D10121042000F02FFD0021042000F0D9
:1007B0002BFD46E0C748844208D10121082000F003
:1007C00023FD0021082000F01FFD3AE0C2488442CA
:1007D00008D10121102000F017FD0021102000F0A9
:1007E00013FD2EE0BD48844208D10121202000F0F5
:1007F0000BFD0021202000F007FD22E0B8488442D4
:1008000008D10121402000F0FFFC0021402000F031
:10081000FBFC16E0B348844208D10121802000F09F
:10082000F3FC0021802000F0EFFC0AE0AE48844297
:1008300007D10121801500F0E7FC0021A01500F090
:10084000E3FC10BD10B50121084600F0DDFC0021DD
:10085000012000F0D9FC10BD2DE9F0410246002531
:100860000026002000230024002791F803C00CF08C
:100870000F0591F803C00CF0100CBCF1000F03D071
:1008800091F802C04CEA050591F800C0BCF1000FD8
:1008900031D0146800202BE04FF0010C0CFA00F36B
:1008A000B1F800C00CEA03069E4220D183004FF04D
:1008B0000F0C0CFA03F7BC4305FA03FC4CEA0404E2
:1008C00091F803C0BCF1280F06D14FF0010C0CFACF
:1008D00000FCC2F814C00AE091F803C0BCF1480F54
:1008E00005D14FF0010C0CFA00FCC2F810C0401CFE
:1008F0000828D1D31460B1F800C0BCF1FF0F34DD7B
:10090000546800202EE000F1080C4FF0010808FAAE
:100910000CF3B1F800C00CEA03069E4221D183001B
:100920004FF00F0C0CFA03F7BC4305FA03FC4CEA3A
:10093000040491F803C0BCF1280F05D100F1080CA4
:1009400008FA0CF8C2F8148091F803C0BCF1480F03
:1009500007D100F1080C4FF0010808FA0CF8C2F8B2
:100960001080401C0828CED35460BDE8F0814FF6BB
:10097000FF710180022181700421C170704702461D
:10098000002093680B400BB1012000E0002070476D
:100990000146886880B2704702460020D3680B4049
:1009A0000BB1012000E0002070470146C86880B20A
:1009B000704701617047416170470AB1016100E011
:1009C00041617047C16070474FF480320A438261D1
:1009D0008161826182698269704702460020434BCF
:1009E00018684FF68073184040EA021008433F4BE6
:1009F000186070473E49C8617047F0B50A46002349
:100A000000240021002500F00046B6F1004F02D17D
:100A1000364EF16901E0354E7168C0F3034583B28B
:100A200000F44016B6F5401F08D121F070612F4E3A
:100A3000766826F070662D4F7E6012E000F4801616
:100A4000B6F5801F06D1032606FA05F4A14341F04E
:100A5000706106E0460D360103FA06F6B14341F037
:100A6000706122B1460D360103FA06F6314300F0FB
:100A70000046B6F1004F02D11C4EF16101E01B4E61
:100A80007160F0BD30B500228B071C0F0F2303FAF5
:100A900004F2164B08338C1053F824309343134C54
:100AA00008348D1044F8253023468C1053F8243038
:100AB0008C07240F00FA04F423430C4C08348D10E7
:100AC00044F8253030BD0A49DC3108607047000029
:100AD00000080140000C01400010014000140140DA
:100AE00000180140001C01400020014000000140AE
:100AF0000000204210B50446F748844209D1012184
:100B0000480500F08EFB00214FF4001000F089FB37
:100B100008E00121880500F084FB00214FF48000EB
:100B200000F07FFB10BD2DE9F04385B004460D4673
:100B30000026B1460427DFF8A483A6884FF6C070CC
:100B40000640684600F0D9FADDF80880E448B8FBB2
:100B5000F0F01FFA80F946EA0906A68020884FF6D1
:100B6000FE71084020800026DE49286888420CD8A3
:100B700028684000B8FBF0F087B2042F00DA0427A1
:100B80003E4309F10100208427E0E8884BF6FF711D
:100B9000884206D1286800EB4000B8FBF0F087B22D
:100BA00009E0286800EBC00101EB0010B8FBF0F091
:100BB00087B247F48047C7F30B0008B947F0010735
:100BC00047F4004006434FF4967009FB00F04FF4E1
:100BD0007A7190FBF1F0401C2084A683208840F0BD
:100BE0000100208026884FF6F5300640A8886989E4
:100BF000084306432680A88929890843208105B037
:100C0000BDE8F08341F288310160002181804BF61C
:100C1000FF71C1800021018141814FF480418181B8
:100C2000704721B1028842F00102028004E002888C
:100C30004FF6FE731A400280704721B1828842F459
:100C40000062828004E082884FF2FF731A40828043
:100C5000704721B1828842F48052828004E0828809
:100C60004EF6FF731A408280704721B1028842F429
:100C70008072028004E002884FF6FF631A4002800F
:100C8000704721B1028842F40072028004E00288B9
:100C90004FF6FF531A400280704721B1028842F498
:100CA0008062028004E002884FF6FF331A4002801F
:100CB00070470A46002181894FF60173194002F0FE
:100CC000FE0319438181704721B1828942F00102FC
:100CD000828104E082894FF6FE731A408281704758
:100CE00021B1028842F04002028004E002884FF6FF
:100CF000BF731A40028070471AB183880B43838008
:100D000002E083888B4383807047018270470146ED
:100D1000088AC0B2704712B141F0010102E04FF6FB
:100D2000FE7319400182704708B50246002000900A
:100D300000920098084400900098008808BD21B1F6
:100D4000028842F40042028003E00288C2F30E02ED
:100D500002807047B1F5006F04D1028842F400624E
:100D6000028004E002884FF2FF731A40028070474D
:100D7000B1F5005F04D1028842F40052028004E021
:100D800002884DF6FF731A400280704721B1028835
:100D900042F48052028004E002884EF6FF731A404B
:100DA00002807047B1F5006F04D1028842F40062FE
:100DB000028004E002884FF2FF731A4002807047FD
:100DC00021B1028842F02002028004E002884FF63E
:100DD000DF731A40028070470146088B001270478B
:100DE00021B1028842F01002028004E002884FF62E
:100DF000EF731A400280704721B9028842F08002E6
:100E0000028004E002884FF67F731A400280704728
:100E1000B1F5804F05D0828B4BF6FF731A40828369
:100E200003E0828B42F480428283704770B50246B1
:100E30000024002500230020958A138B1B0445EA1B
:100E4000030626F07F4404EA01068E4201D1012008
:100E500000E0002070BD10B50146002000230022F4
:100E60008B8A0A8B120443EA020424F07F4010BDEF
:100E70000CB50246002000230193009300920B0F53
:100E8000019321F07F41019B1BB1009B1433009320
:100E900003E0090C009B18330093009B1B680B4078
:100EA0000BB1012000E000200CBD002221F07F42A8
:100EB000D3438382704730B50246002000239488D4
:100EC00001F0E06504EA154321F07F41948A0C406B
:100ED00054B14BB1012008E00054004000127A00E8
:100EE00040420F00A0860100002030BD002221F00A
:100EF0007F42D34383827047DF48006840F001009F
:100F0000DD49086008464068DC490840DA49486025
:100F100008460068DA490840D74908600846006872
:100F200020F4802008600846406820F4FE004860F5
:100F30004FF41F0088607047CF49096821F4803161
:100F4000CD4A11601146096821F480211160B0F585
:100F5000803F03D0B0F5802F0ED106E0C649096866
:100F600041F48031C44A116007E0C349096841F483
:100F7000A021C14A116000E000BF00BF704710B55A
:100F800001460022002300204A11012A02D1BA4C56
:100F9000236806E0022A02D1B74C236A01E0B64C6E
:100FA000636A01F01F02012494401C400CB101202F
:100FB00000E0002010BD38B500200090002400257E
:100FC00000BF3120FFF7DBFF05460098401C009072
:100FD0000098B0F5A06F01D0002DF2D03120FFF7BE
:100FE000CEFF08B1012400E00024204638BD0146B0
:100FF0000020A14A106820F0F80040EAC10010600B
:101000007047A04908607047024600209A4B586814
:1010100020F47C1042EA01031843974B5860704754
:1010200098490866704701460020934A506820F0AE
:1010300003000843506070478F48406800F00C0080
:101040007047014600208C4A506820F0F0000843A9
:101050005060704701460020874A506820F4E060E5
:1010600008435060704701460020834A506820F4CE
:10107000605040EAC1005060704729B17E4A527A00
:1010800002437D4B5A7204E07B4A527A82437A4B88
:101090005A7270477B49D83108607047014600207A
:1010A000754A506820F44040084350607047002162
:1010B000714A20321170704A82F82010012802D043
:1010C00004280AD104E001216B4A2032117005E0A6
:1010D0000521694A2032117000E000BF00BF70474F
:1010E0006949086070476449096A0143624A1162AC
:1010F0007047654944390860704730B500210022C7
:10110000002400235C4D6D6805F00C0121B1042919
:1011100005D0082923D105E05C4D056022E05B4D38
:1011200005601FE0544D6D6805F47012524D6D68F6
:1011300005F48034022505EB92421CB9544D554309
:1011400005600BE04C4D6D6805F400351DB1504D48
:101150005543056002E04D4D5543056002E04B4D9F
:10116000056000BF00BF444D6D6805F0F00109093E
:10117000484D6B5C0568DD4045603F4D6D6805F48A
:10118000E061090A434D6B5C4568DD4085603A4D7E
:101190006D6805F46051C90A3E4D6B5C4568DD40E1
:1011A000C560354D6D6805F44041890B3A4D6B5C67
:1011B000C568B5FBF3F5056130BD29B12E4A52690A
:1011C00002432D4B5A6104E02B4A526982432A4B59
:1011D0005A61704729B1284A92690243264B9A61A5
:1011E00004E0254A92698243234B9A61704729B1F2
:1011F000214AD2690243204BDA6104E01E4AD269D7
:1012000082431D4BDA61704729B11B4AD268024301
:10121000194BDA6004E0184AD2688243164BDA6050
:10122000704729B1144A12690243134B1A6104E052
:10123000114A12698243104B1A61704712494039B2
:10124000086070470F49C86470470B49C871704700
:101250000948406A40F0807007494862704701467B
:101260000020054A92680A400AB1012000E00020EF
:101270007047014988727047001002400000FFF873
:10128000FFFFF6FE000042428004424200127A0054
:1012900000093D00140000202400002010B5044681
:1012A000FB48844209D101218803FFF7ADFF0021EB
:1012B0004FF48040FFF7A8FF32E0F648844209D19E
:1012C00001214804FFF7ADFF00214FF40030FFF784
:1012D000A8FF25E0F048844209D101218804FFF7E6
:1012E000A0FF00214FF48020FFF79BFF18E0EB48A0
:1012F000844209D10121C804FFF793FF00214FF474
:101300000020FFF78EFF0BE0E548844208D1012161
:101310000805FFF786FF00214FF48010FFF781FFDB
:1013200010BD2DE9F04786B005460E460024A246C2
:1013300000BFA1460027B08900B100BF2F462C8A0C
:101340004CF6FF700440F08804432C82AC894EF6C2
:10135000F3100440B088318908437189084304437D
:10136000AC81AC8A4FF6FF400440B0890443AC82A4
:1013700001A8FFF7C2FEC648874202D1DDF810A0DF
:1013800001E0DDF80CA0A88900F4004040B10AEBB0
:10139000CA0000EB0A1031684900B0FBF1F807E021
:1013A0000AEBCA0000EB0A1031688900B0FBF1F8C3
:1013B0006420B8FBF0F004012009642101FB1089CE
:1013C000A88900F4004040B1322000EBC900B0FB16
:1013D000F1F000F00700044308E0322000EB0910B0
:1013E0006421B0FBF1F000F00F0004432C8106B043
:1013F000BDE8F0874FF41651016000218180C18063
:1014000001810C21418100218181704710B5024684
:101410000020108A4FF2FF0318400B884C882343AA
:101420008C882343CC8823431843108210BD0021AD
:10143000018041808180C180704721B1828942F45E
:101440000052828104E082894DF6FF731A40828146
:101450007047F0B50346002400260025002040F622
:101460006A17B94200D100BF1846C1F3421401F017
:101470001F06012707FA06F5012C01D10C3004E004
:10148000022C01D1103000E014301AB107682F434C
:10149000076002E00768AF430760F0BD1AB1838AB6
:1014A0000B43838202E0838A8B4383827047028AE4
:1014B0004FF6F0731A400282028A0A430282704792
:1014C00082894FF2FF731A40828182890A438281A6
:1014D000704721B1828942F00202828104E0828950
:1014E0004FF6FD731A4082817047028A4FF6DF7310
:1014F0001A400282028A0A430282704721B1028A9C
:1015000042F48042028204E0028A4BF6FF731A40E2
:1015100002827047C1F308028280704701468888C2
:10152000C0F308007047818941F001018181704753
:10153000028BD2B20283028B42EA012202837047FD
:10154000028B02F47F420283028B0A4302837047BC
:1015500021B1828A42F02002828204E0828A4FF620
:10156000DF731A408282704721B1828A42F01002F2
:10157000828204E0828A4FF6EF731A4082827047BB
:1015800021B1828A42F00802828204E0828A4FF608
:10159000F7731A408282704721B1828942F4004277
:1015A000828103E08289C2F30E028281704721B1F9
:1015B000828A42F40062828204E0828A4FF2FF73E0
:1015C0001A4082827047828A4FF6FB731A408282E9
:1015D000828A0A438282704721B1828A42F00202E3
:1015E000828204E0828A4FF6FD731A40828270473D
:1015F00002460020B1F5007F00D100BF13880B40E8
:101600000BB1012000E00020704701F40072B2F538
:10161000007F00D100BFCA430280704770B5024608
:10162000002400230025002040F66A16B14200D1B4
:1016300000BFC1F3421501F01F03012606FA03F3B0
:10164000012D02D19689334006E0022D02D1168A7F
:10165000334001E0968A33400C12012606FA04F466
:101660001688344013B10CB1012000E0002070BD99
:1016700010B50022002340F66A14A14200D100BF39
:101680000A1201249440A3B2DC43048010BD000080
:10169000003801400044004000480040004C004039
:1016A0000050004001B500BF0098411E0091002885
:1016B000FAD108BD08B501210420FFF78BFD3E4893
:1016C000006800904FF40070ADF8000018208DF80D
:1016D000030069463948FFF7BFF84FF48060ADF862
:1016E000000004208DF8030069463448FFF7B4F881
:1016F00008BD1FB50446FFF7DDFF01218803FFF792
:1017000069FD2D4B1B1D0FCB8DE80F000094694622
:101710002B48FFF706FE01212948FFF78EFE012224
:1017200040F225512648FFF794FE012240F2244161
:101730002348FFF78EFE1FBD38B504460D462048EE
:101740000088009029462046FFF7E4FE00BF4021B4
:101750002046FFF74DFF0028F9D038BD70B506468A
:101760000C46002500BF615D3046FFF7E5FF6D1CAC
:10177000605D0028F7D100BF40213046FFF738FFF9
:101780000028F9D070BD2DE9F04107460D461646F8
:10179000002405E0295D3846FFF7CEFF601C84B2C7
:1017A000B442F7DB00BF40213846FFF721FF002895
:1017B000F9D0BDE8F0810000F825000800080140DC
:1017C0000038014001B500BF0098411E009100287B
:1017D000FAD108BD38B504460D460B480088009084
:1017E000E1B20948FFF7A8FF204638BD10B504460E
:1017F00000BF20210448FFF7FBFE0028F9D0024873
:10180000FFF78CFE10BD000000380140704700BF9C
:10181000FEE700BFFEE700BFFEE700BFFEE7704740
:10182000704770477047000001B500BF0098411E27
:1018300000910028FAD108BD00B585B00121480209
:10184000FFF7C8FC4FF40040FFF728FC14221D49A5
:10185000684600F0BFFB69461B48FEF79CFD01216E
:101860001948FEF7C4FD0120FEF752FF1648FEF7A7
:10187000E0FD00BF1448FEF7E1FD0028FAD1124850
:10188000FEF7E6FD00BF1048FEF7E7FD0028FAD19D
:1018900005B000BD10B504460523012221460A48C3
:1018A000FEF711FE01210848FEF7E1FD00BF02210D
:1018B0000548FEF74DFF0128F9D10348FEF76AFEFF
:1018C00010BD00000C2600080024014001B500BF37
:1018D0000098411E00910028FAD108BD00B585B0DE
:1018E00001210820FFF776FCFC480068049004A959
:1018F000FB48FEF7B1FF01214805FFF778FCF74BE5
:101900001B1D0FCB8DE80F006946F648FFF70BF95A
:101910000121F448FFF785F905B000BD70B5044614
:101920000D460121EF48FFF7A0F94FF48050EE4932
:10193000088008E0EC480088401E80B2EA49088030
:1019400008B9012070BDE949E648FFF76FFA0028A1
:10195000F0D00022A021E348FFF7DDF94FF48050DA
:10196000E149088008E0E0480088401E80B2DE4976
:10197000088008B90220E5E7DD49DA48FFF756FAA2
:101980000028F0D02146D748FFF7BFF94FF4805028
:10199000D549088008E0D4480088401E80B2D2496A
:1019A000088008B90320CDE7D149891CCD48FFF74D
:1019B0003DFA0028EFD02946CA48FFF7A6F94FF4B0
:1019C0008050C949088008E0C7480088401E80B29E
:1019D000C549088008B90420B4E7C549891CC14835
:1019E000FFF724FA0028EFD00121BE48FFF749F99C
:1019F0000020A7E770B505460C4616464FF4704028
:101A0000B949088008E0B8480088401E80B2B6494D
:101A1000088008B9012070BD4FF40031B148FFF7CC
:101A200027FA0028EFD10121AE48FFF71EF94FF445
:101A30008050AD49088008E0AB480088401E80B265
:101A4000A949088008B90120E5E7A849A548FFF79A
:101A5000EDF90028F0D00022A021A248FFF75BF9A1
:101A60004FF48050A049088008E09F480088401E3D
:101A700080B29D49088008B90220CCE79C4999486A
:101A8000FFF7D4F90028F0D029469648FFF73DF932
:101A90004FF480509449088008E093480088401E25
:101AA00080B29149088008B90320B4E79049891CA5
:101AB0008C48FFF7BBF90028EFD019E0217889485E
:101AC000FFF723F9641C4FF480508749088008E031
:101AD00085480088401E80B28349088008B90420E8
:101AE00099E78349891C7F48FFF7A0F90028EFD0C8
:101AF000301EA6F10101CEB2E0D101217948FFF7F5
:101B0000C0F8002087E770B506460D4614464FF42E
:101B100080507549088008E073480088401E80B2F4
:101B20007149088008B9012070BD4FF400316D483B
:101B3000FFF79EF90028EFD101216A48FFF795F8D9
:101B40004FF480506849088008E067480088401ECC
:101B500080B26549088008B90120E5E7634961481A
:101B6000FFF764F90028F0D00022A0215D48FFF7BC
:101B7000D2F84FF480505C49088008E05A48008849
:101B8000401E80B25849088008B90220CCE7584965
:101B90005448FFF74BF90028F0D001215148FFF7D6
:101BA00040F831464F48FFF7B0F84FF480504E49A7
:101BB000088008E04C480088401E80B24A490880EE
:101BC00008B90320B0E74A49891C4648FFF72EF9B7
:101BD0000028EFD001214348FFF747F84FF4805029
:101BE0004149088008E040480088401E80B23E49D4
:101BF000088008B9012097E73C493A48FFF716F9F1
:101C00000028F0D00122A0213648FFF784F84FF4D5
:101C100080503549088008E033480088401E80B273
:101C20003149088008B902207EE73049491C2D4817
:101C3000FFF7FCF80028EFD025E0012C07D10021A8
:101C40002848FFF72AF801212648FFF71AF84FF431
:101C500080502549088008E023480088401E80B253
:101C60002149088008B903205EE720493F311D481B
:101C7000FFF7DCF80028EFD01A48FFF748F8287083
:101C80006D1C601EC4B2002CD7D101211548FFF78E
:101C900004F8002048E708B50020009000BF0121AB
:101CA0001048FEF7E2FF14210E48FFF73DF80090C0
:101CB0000022A0210B48FFF72EF814210948FFF756
:101CC00033F800F002000028E9D00A490548FFF780
:101CD000ECF801210348FEF7D4FF08BD20260008D8
:101CE000000C0140005400402800002001000300C7
:101CF00082000700000400102DE9F05F06468846C8
:101D000014462046E11704EB5171C1F3C709E117EE
:101D100004EB5171C910A4EBC10101F0FF0A304678
:101D2000F11706EB5171C910A6EBC10101F0FF0BD1
:101D3000CBF10800C7B2BBF1000F36D1B9F1000FEB
:101D40000CD1524641463046FFF754FE054615B1C8
:101D50002846BDE8F09FFFF79EFF7AE00FE00822DB
:101D600041463046FFF746FE05460DB12846F0E7EE
:101D7000FFF791FF06F10800C6B208F10808B9F1B3
:101D80000000A9F1010101F0FF09E8D1BAF1000F4B
:101D90005FD0524641463046FFF72CFE05460DB156
:101DA0002846D6E7FFF777FF53E0B9F1000F0BD1D4
:101DB000524641463046FFF71DFE05460DB1284606
:101DC000C7E7FFF768FF44E0E01BC4B22046E11715
:101DD00004EB51714FEAE109E11704EB5171C910AD
:101DE000A4EBC10101F0FF0A6FB13A46414630460B
:101DF000FFF700FE05460DB12846AAE7FFF74BFFA7
:101E0000F019C6B2B8440FE0082241463046FFF749
:101E1000F1FD05460DB128469BE7FFF73CFF06F1B3
:101E20000800C6B208F10808B9F10000A9F10101E3
:101E300001F0FF09E8D1BAF1000F0AD0524641463D
:101E40003046FFF7D7FD05460DB1284681E7FFF77D
:101E500022FF28467DE788B04FF4E130FFF749FCC8
:101E6000FFF73CFDFFF7E8FC2024A046404600F0C9
:101E700079FB0646224631460320FFF744FE05461D
:101E800025B1294623A000F01BF90FE02BA000F09C
:101E9000A1FB002704E0F15D30A000F011F97F1CE8
:101EA000A742F8D32F490A2000F092FB1020FFF739
:101EB000F1FC074600F086F8002704E000F078F80F
:101EC0004DF827007F1C082FF8D32246694630467C
:101ED00000F080F8E2B231460320FFF70DFF05461F
:101EE00025B1294620A000F0EBF810E028A000F072
:101EF00071FB002705E05DF827102CA000F0E0F84A
:101F00007F1C082FF7D317490A2000F061FB00BFA0
:101F1000FEE700004572726F722072656164696E3F
:101F20006720415432344330322064617461202888
:101F3000636F64653A202564290A0000E5898DE411
:101F4000B880E6ACA1E5AD98E585A5E79A84E6956D
:101F5000B0E580BCE4B8BAEFBC9A00002530327816
:101F6000200000002C0000204572726F72207772F2
:101F70006974696E672041543234433032206461A1
:101F800074612028636F64653A202564290A000083
:101F9000E69CACE6ACA1E7949FE68890E79A84E9DA
:101FA0009A8FE69CBAE695B0EFBC9A00257820009F
:101FB0000649074A0868504343F239021044086052
:101FC0004008704701490860704700003000002059
:101FD0006D4EC64140EA01039B0703D009E008C9E2
:101FE000121F08C0042AFAD203E011F8013B00F8DE
:101FF000013B521EF9D270472DE9F05F05460020E3
:1020000092469B4688460646814640241BE0284669
:1020100041464746224600F042F853465A46C01A07
:10202000914110D311461846224600F029F82D1A86
:1020300067EB01084F4622460120002100F020F8FE
:1020400017EB00094E41201EA4F10104DFDC4846D5
:1020500031462A464346BDE8F09F0000064C074D36
:1020600006E0E06840F0010394E807009847103468
:10207000AC42F6D3FEF760F8342600085426000878
:10208000202A04DB203A00FA02F100207047914038
:10209000C2F1200320FA03F3194390407047202A2D
:1020A00004DB203A21FA02F00021704721FA02F302
:1020B000D040C2F120029140084319467047000009
:1020C0000FB4054B10B503A9044A029800F018F8A4
:1020D00010BC5DF814FB0000D51700082C00002090
:1020E00002E008C8121F08C1002AFAD170477047E1
:1020F000002001E001C1121F002AFBD1704700003F
:102100002DE9FF4F8DB00F460546002606E0252835
:102110000BD0DDE90F1290476D1C761C2878002843
:10212000F5D111B03046BDE8F08F0024A246A1469B
:102130000122EC4900E0044315F8013F203B02FA7C
:1021400003F00842F7D128782A2810D06FF02F0228
:102150002878A0F13001092914D80AEB8A0102EB92
:10216000410144F0020400EB010A6D1CF0E701CFCD
:102170005FEA000A03D544F40054CAF1000A44F0AF
:1021800002046D1C28782E2817D115F8010F44F091
:1021900004042A280ED06FF02F022878A0F1300115
:1021A00009290AD809EB890102EB410100EB010979
:1021B0006D1CF2E757F8049B6D1C28786C280FD033
:1021C00006DC4C2817D068280DD06A2814D104E00A
:1021D000742810D07A280FD10DE044F400140AE0DE
:1021E00044F4801401E044F440146978814202D13F
:1021F00004F580146D1C6D1C2A786E2A1FD00CDC2F
:10220000632A31D004DC002A8BD0582A11D1A3E0F4
:10221000642A68D0692A0CD165E0732A2ED004DCC8
:102220006F2A73D0702A04D19BE0752A6FD0782A68
:102230006ED01046DDE90F129047761C50E1C4F3D2
:102240000250022806D0032809D0042801CF09D063
:10225000066045E101CFF117C0E9006140E101CF1F
:1022600006803DE106703BE117F8040B8DF8000095
:1022700000208DF80100EB46012003E057F804BB75
:102280004FF0FF3061074FF0000102D40DE008F17C
:102290000101884649450FDA8045F8DB1BF8081034
:1022A0000029F4D108E008F1010188468142FADBF7
:1022B0001BF808100029F6D1DDE90F23AAEB08006E
:1022C0008146214600F036F9304400EB080604E070
:1022D000DDE90F121BF8010B9047B8F10108F7D2A6
:1022E00021464846F7E00A21C4F302534FF0000BA1
:1022F0000891022B04D001CFC117032B09D00AE0AB
:10230000FF1D27F00707F7E8020108E032E01FE0B1
:1023100020E000B2C117042B01D140B2C117031E47
:1023200071F1000307DA4FF0000CD0EB0C006CEBFE
:1023300001012D2302E0230504D52B238DF8243041
:10234000012303E0E30701D02023F7E7984658E094
:102350000A2110E010210EE010204FF0000B089031
:102360000CE010214FF0000B44F004044FF008097A
:10237000089103E008214FF0000B0891C4F30253C9
:10238000022B04D001CF0021032B06D006E0FF1D55
:1023900027F00707F7E8020103E080B2042B00D121
:1023A000C0B24FF0000823072BD5702A07D0DDF804
:1023B00020C08CF0100C5CEA0B0C05D00EE0402322
:1023C0008DF82430012308E050EA010306D03023C1
:1023D0008DF824308DF8252002239846DDF820C0A2
:1023E0008CF0080C5CEA0B0C0BD150EA010301D114
:1023F000630706D530238DF824304FF00108A9F18A
:102400000109582A04D038A20B9208AA0A920BE0BC
:102410003AA2F9E75B46089AFFF7EEFD0B9B9B5C3F
:102420000A9A521E0A92137050EA0102F2D10A98D7
:10243000ADEB000000F1200B600702D524F48034DE
:1024400001E04FF00109D94502DDA9EB0B0000E0E6
:10245000002000EB0B0141440890AAEB010AE003C5
:1024600006D4DDE90F232146504600F063F8064408
:102470004FF0000908E009A911F80900DDE90F1281
:10248000904709F10109761CC145F4DBE0030CD546
:10249000DDE90F232146504600F04CF8064404E0E5
:1024A000DDE90F1230209047761C0899481E0890ED
:1024B0000029F5DC08E00A980A990078491C0A917D
:1024C000DDE90F129047761CBBF10001ABF1010B67
:1024D000F1DC21465046DDE90F2300F019F80644EF
:1024E0006D1C1BE609280100303132333435363794
:1024F0003839616263646566000000003031323350
:1025000034353637383941424344454600000000EF
:102510002DE9F041044600251E461746880404D4E0
:1025200005E039462020B0476D1C641EF9D52846C9
:10253000BDE8F0812DE9F041044600251E46904695
:10254000C80301D5302700E02027880404D505E022
:1025500041463846B0476D1C641EF9D52846BDE893
:10256000F0810000F0B50B30154D20F0070100247C
:10257000144A0FE003688B420BD38B4205D95E1AD5
:1025800043184768C3E9006700E04368136002C06E
:1025900004E0021D10680028ECD12046002802D17A
:1025A000286808B10020F0BD064A07481060074AB5
:1025B000121A22F00702C0E9002401202860D7E7A0
:1025C0003800002034000020440000204002002099
:1025D000FFF700B910B5044601E0FFF7FBF814F867
:1025E000010B04490028F8D1BDE810400A20FFF78C
:1025F000F1B800002C0000200000030000000000E3
:102600000000000000000C000000000000000000BE
:102610000000000000000E000000000001000000AB
:10262000C000031C801A06000000FFBF0000000469
:102630000040000054260008000000203C0000007C
:10264000E0200008902600083C000020040600005E
:10265000F020000800A24A04000000000000000072
:102660000102030406070809000000000102030438
:10267000010203040607080902040608000000001E
:10268000000000000000000000000000000000004A
:0400000508000131BD
:00000001FF
