:020000040800F2
:1000000038060020450100081D1500081F150008CE
:1000100023150008271500082B1500080000000014
:100020000000000000000000000000002F15000884
:1000300031150008000000003315000835150008D0
:100040005F0100085F0100085F0100085F01000810
:100050005F0100085F0100085F0100085F01000800
:100060005F0100085F0100085F0100085F010008F0
:100070005F0100085F0100085F0100085F010008E0
:100080005F0100085F0100085F0100085F010008D0
:100090005F0100085F0100085F0100085F010008C0
:1000A0005F0100085F0100085F0100085F010008B0
:1000B0005F0100085F0100085F0100085F010008A0
:1000C0005F0100085F0100085F0100085F01000890
:1000D0005F0100085F0100085F0100085F01000880
:1000E0005F0100085F0100085F0100085F01000870
:1000F0005F0100085F0100085F0100085F01000860
:100100005F0100085F0100085F0100085F0100084F
:100110005F0100085F0100085F0100085F0100083F
:100120005F0100085F0100085F0100085F0100082F
:10013000DFF80CD001F022FD0048004751190008FB
:10014000380600200648804706480047FEE7FEE7DD
:10015000FEE7FEE7FEE7FEE7FEE7FEE7FEE7FEE777
:1001600047020008310100080CB500200190009002
:100170006C48006840F480306A49086000BF6948F4
:10018000006800F4003000900198401C0190009835
:1001900018B90198B0F5A06FF1D16248006800F479
:1001A000003010B10120009001E000200090009884
:1001B000012843D15C48006840F010005A490860AB
:1001C0000846006820F0030008600846006840F018
:1001D0000200086053484068524948600846406839
:1001E00048600846406840F48060486008464068BF
:1001F00020F47C1048600846406840F4E8104860ED
:100200000846006840F08070086000BF45480068FC
:1002100000F000700028F9D04248406820F0030048
:10022000404948600846406840F00200486000BF0E
:100230003C48406800F00C000828F9D10CBD10B50E
:10024000FFF792FF10BD10B53648006840F001007E
:1002500034490860084640683449084031494860DC
:1002600008460068324908402E4908600846006880
:1002700020F4802008600846406820F4FE004860B2
:100280004FF41F008860FFF7DAFF4FF00060294944
:10029000086010BD10B5002100200022214B5B68D2
:1002A00003F00C0121B1042906D0082928D107E068
:1002B000214B224C236027E01F4B204C236023E07E
:1002C000184B5B6803F47010164B5B6803F48032C4
:1002D000022303EB904022B9194B4343174C236090
:1002E0000DE0104B5B6803F4003323B1144B434320
:1002F000124C236003E0104B4343104C236003E097
:100300000D4B0E4C236000BF00BF064B5B68C3F370
:1003100003130C4CE15C094B1B68CB40074C23607A
:1003200010BD000000100240002002400000FFF855
:10033000FFFFF6FE08ED00E000127A00000000204A
:1003400000093D000400002010B50446FA4884422C
:1003500008D10121401500F055FD0021601500F085
:1003600051FD17E0F548844208D10121001500F045
:1003700049FD0021201500F045FD0BE0F0488442C6
:1003800008D10121C80300F03DFD00214FF40040D9
:1003900000F038FD10BD30B5024600200023506843
:1003A000E84C20400D790C6844EA05242043506055
:1003B0009068E54C2040D1E902542C434D7944EA41
:1003C000450420439060D06A20F470000C7C641EC9
:1003D000E4B2234340EA0350D06230BD0021016003
:1003E000017141718160C16001210174704721B1C7
:1003F000826842F00102826003E0826822F001021A
:100400008260704721B1826842F48072826003E0AA
:10041000826822F480728260704710B50023CBB2EC
:100420001AB144681C43446002E044689C43446041
:1004300010BD816841F008018160704701460020CD
:100440008A6802F008020AB1012000E0002070472B
:10045000816841F0040181607047014600208A688C
:1004600002F004020AB1012000E00020704721B12F
:10047000826842F4A002826003E0826822F4A00253
:1004800082607047014600208A6802F480020AB147
:10049000012000E00020704710B50A46002100232B
:1004A000416821F46041531E41EA4331416010BD6F
:1004B00021B1426842F40062426003E0426822F4E3
:1004C000006242607047F0B504460D4600200021EE
:1004D000092D11DDE068A5F10A0606EB460707269F
:1004E00006FA07F18843A5F10A0606EB460603FA69
:1004F00006F10843E0600CE0206905EB450707269C
:1005000006FA07F1884305EB450603FA06F10843AE
:100510002061072A0FDA606B561E06EB86071F263E
:1005200006FA07F18843561E06EB860605FA06F121
:100530000843606322E00D2A0FDA206BD61F06EB1A
:1005400086071F2606FA07F18843D61F06EB8606A4
:1005500005FA06F10843206310E0E06AA2F10D06F7
:1005600006EB86071F2606FA07F18843A2F10D065F
:1005700006EB860605FA06F10843E062F0BD21B1FC
:10058000826842F48012826003E0826822F4801262
:10059000826070470146C86C80B2704766484C3034
:1005A0000068704721B1426842F48062426003E013
:1005B000426822F480624260704721B1426842F48E
:1005C0008052426003E0426822F4805242607047E9
:1005D0000A460021816821F4E0411143816070479F
:1005E00021B1826842F40042826003E0826822F412
:1005F00000428260704721B1826842F40212826038
:1006000003E0826822F402128260704701460020F3
:100610008A6802F400120AB1012000E0002070474D
:10062000F0B504461546002000220026092911DDF8
:10063000E068A1F10A0707EB470C072707FA0CF25D
:100640009043A1F10A0707EB470703FA07F21043AB
:10065000E0600CE0206901EB410C072707FA0CF27F
:10066000904301EB410703FA07F210432061A06BAE
:10067000C0F30156EF1C06F1010CA7EB0C0707EBCA
:10068000870C1F2707FA0CF29043EF1C06F1010CB0
:10069000A7EB0C0707EB870701FA07F21043A063EB
:1006A000F0BD10B50A4600210023816B21F44011F2
:1006B000531E41EA0351816310BD08B50023009326
:1006C0000090009B0B440093009B1A6008BD08B586
:1006D000024600200090009201F12800009B18447F
:1006E00000900098006880B208BD0A460021416869
:1006F000164B194011434160704741628262704756
:100700000A460021416821F01F01114341607047F2
:1007100040B109490831096841F40001064A08322C
:10072000116007E004490831096821F40001024A18
:100730000832116070470000002401400028014089
:10074000003C0140FFFEF0FFFDF7F1FFFFFD3FFF22
:100750000246002013680B400BB1012000E000208E
:100760007047CA430260704770B5024600200023FC
:1007700000240B125568CEB205EA060415681D4028
:1007800015B10CB1012000E0002070BD00220A125A
:10079000D34303607047000010B50446CC48844240
:1007A00008D10121042000F02DFB0021042000F0DD
:1007B00029FB46E0C748844208D10121082000F007
:1007C00021FB0021082000F01DFB3AE0C2488442D2
:1007D00008D10121102000F015FB0021102000F0AD
:1007E00011FB2EE0BD48844208D10121202000F0F9
:1007F00009FB0021202000F005FB22E0B8488442DC
:1008000008D10121402000F0FDFA0021402000F035
:10081000F9FA16E0B348844208D10121802000F0A3
:10082000F1FA0021802000F0EDFA0AE0AE4884429F
:1008300007D10121801500F0E5FA0021A01500F094
:10084000E1FA10BD10B50121084600F0DBFA0021E5
:10085000012000F0D7FA10BD2DE9F0410246002535
:100860000026002000230024002791F803C00CF08C
:100870000F0591F803C00CF0100CBCF1000F03D071
:1008800091F802C04CEA050591F800C0BCF1000FD8
:1008900031D0146800202BE04FF0010C0CFA00F36B
:1008A000B1F800C00CEA03069E4220D183004FF04D
:1008B0000F0C0CFA03F7BC4305FA03FC4CEA0404E2
:1008C00091F803C0BCF1280F06D14FF0010C0CFACF
:1008D00000FCC2F814C00AE091F803C0BCF1480F54
:1008E00005D14FF0010C0CFA00FCC2F810C0401CFE
:1008F0000828D1D31460B1F800C0BCF1FF0F34DD7B
:10090000546800202EE000F1080C4FF0010808FAAE
:100910000CF3B1F800C00CEA03069E4221D183001B
:100920004FF00F0C0CFA03F7BC4305FA03FC4CEA3A
:10093000040491F803C0BCF1280F05D100F1080CA4
:1009400008FA0CF8C2F8148091F803C0BCF1480F03
:1009500007D100F1080C4FF0010808FA0CF8C2F8B2
:100960001080401C0828CED35460BDE8F0814FF6BB
:10097000FF710180022181700421C170704702461D
:10098000002093680B400BB1012000E0002070476D
:100990000146886880B2704702460020D3680B4049
:1009A0000BB1012000E0002070470146C86880B20A
:1009B000704701617047416170470AB1016100E011
:1009C00041617047C16070474FF480320A438261D1
:1009D0008161826182698269704702460020434BCF
:1009E00018684FF68073184040EA021008433F4BE6
:1009F000186070473E49C8617047F0B50A46002349
:100A000000240021002500F00046B6F1004F02D17D
:100A1000364EF16901E0354E7168C0F3034583B28B
:100A200000F44016B6F5401F08D121F070612F4E3A
:100A3000766826F070662D4F7E6012E000F4801616
:100A4000B6F5801F06D1032606FA05F4A14341F04E
:100A5000706106E0460D360103FA06F6B14341F037
:100A6000706122B1460D360103FA06F6314300F0FB
:100A70000046B6F1004F02D11C4EF16101E01B4E61
:100A80007160F0BD30B500228B071C0F0F2303FAF5
:100A900004F2164B08338C1053F824309343134C54
:100AA00008348D1044F8253023468C1053F8243038
:100AB0008C07240F00FA04F423430C4C08348D10E7
:100AC00044F8253030BD0A49DC3108607047000029
:100AD00000080140000C01400010014000140140DA
:100AE00000180140001C01400020014000000140AE
:100AF00000002042DF48006840F00100DD49086046
:100B000008464068DC490840DA4948600846006801
:100B1000DA490840D74908600846006820F4802078
:100B200008600846406820F4FE0048604FF41F004B
:100B300088607047CF49096821F48031CD4A11603F
:100B40001146096821F480211160B0F5803F03D07F
:100B5000B0F5802F0ED106E0C649096841F4803116
:100B6000C44A116007E0C349096841F4A021C14AA1
:100B7000116000E000BF00BF704710B501460022C1
:100B8000002300204A11012A02D1BA4C236806E052
:100B9000022A02D1B74C236A01E0B64C636A01F025
:100BA0001F02012494401C400CB1012000E00020F1
:100BB00010BD38B5002000900024002500BF312072
:100BC000FFF7DBFF05460098401C00900098B0F549
:100BD000A06F01D0002DF2D03120FFF7CEFF08B179
:100BE000012400E00024204638BD01460020A14A2F
:100BF000106820F0F80040EAC10010607047A0497A
:100C000008607047024600209A4B586820F47C1018
:100C100042EA01031843974B5860704798490866A9
:100C2000704701460020934A506820F003000843B3
:100C3000506070478F48406800F00C0070470146D4
:100C400000208C4A506820F0F00008435060704744
:100C500001460020874A506820F4E0600843506055
:100C6000704701460020834A506820F4605040EAF3
:100C7000C1005060704729B17E4A527A02437D4BD1
:100C80005A7204E07B4A527A82437A4B5A72704716
:100C90007B49D8310860704701460020754A50688A
:100CA00020F440400843506070470021714A2032D0
:100CB0001170704A82F82010012802D004280AD14D
:100CC00004E001216B4A2032117005E00521694AD8
:100CD0002032117000E000BF00BF70476949086012
:100CE00070476449096A0143624A11627047654965
:100CF00044390860704730B50021002200240023E9
:100D00005C4D6D6805F00C0121B1042905D008295E
:100D100023D105E05C4D056022E05B4D05601FE0DE
:100D2000544D6D6805F47012524D6D6805F48034B1
:100D3000022505EB92421CB9544D554305600BE06A
:100D40004C4D6D6805F400351DB1504D554305609F
:100D500002E04D4D5543056002E04B4D056000BF7C
:100D600000BF444D6D6805F0F0010909484D6B5C0A
:100D70000568DD4045603F4D6D6805F4E061090A96
:100D8000434D6B5C4568DD4085603A4D6D6805F408
:100D90006051C90A3E4D6B5C4568DD40C560354D0C
:100DA0006D6805F44041890B3A4D6B5CC568B5FB35
:100DB000F3F5056130BD29B12E4A526902432D4B2E
:100DC0005A6104E02B4A526982432A4B5A617047A8
:100DD00029B1284A92690243264B9A6104E0254AC8
:100DE00092698243234B9A61704729B1214AD269A3
:100DF0000243204BDA6104E01E4AD26982431D4B54
:100E0000DA61704729B11B4AD2680243194BDA6094
:100E100004E0184AD2688243164BDA60704729B161
:100E2000144A12690243134B1A6104E0114A126911
:100E30008243104B1A61704712494039086070476D
:100E40000F49C86470470B49C87170470948406A28
:100E500040F0807007494862704701460020054A0B
:100E600092680A400AB1012000E000207047014961
:100E700088727047001002400000FFF8FFFFF6FE86
:100E8000000042428004424200127A0000093D0004
:100E9000140000202400002010B50446FB488442C2
:100EA00009D101218803FFF7ADFF00214FF48040F5
:100EB000FFF7A8FF32E0F648844209D10121480437
:100EC000FFF7ADFF00214FF40030FFF7A8FF25E04A
:100ED000F048844209D101218804FFF7A0FF0021D6
:100EE0004FF48020FFF79BFF18E0EB48844209D1C4
:100EF0000121C804FFF793FF00214FF40020FFF702
:100F00008EFF0BE0E548844208D101210805FFF778
:100F100086FF00214FF48010FFF781FF10BD2DE9FF
:100F2000F04786B005460E460024A24600BFA14603
:100F30000027B08900B100BF2F462C8A4CF6FF7005
:100F40000440F08804432C82AC894EF6F310044030
:100F5000B08831890843718908430443AC81AC8A65
:100F60004FF6FF400440B0890443AC8201A8FFF76C
:100F7000C2FEC648874202D1DDF810A001E0DDF8CC
:100F80000CA0A88900F4004040B10AEBCA0000EBB5
:100F90000A1031684900B0FBF1F807E00AEBCA001B
:100FA00000EB0A1031688900B0FBF1F86420B8FB4F
:100FB000F0F004012009642101FB1089A88900F4E4
:100FC000004040B1322000EBC900B0FBF1F000F06E
:100FD0000700044308E0322000EB09106421B0FB55
:100FE000F1F000F00F0004432C8106B0BDE8F0875B
:100FF0004FF41651016000218180C18001810C21D4
:10100000418100218181704710B502460020108A7D
:101010004FF2FF0318400B884C8823438C882343EE
:10102000CC8823431843108210BD002101804180E9
:101030008180C180704721B1828942F4005282814F
:1010400004E082894DF6FF731A4082817047F0B543
:101050000346002400260025002040F66A17B94206
:1010600000D100BF1846C1F3421401F01F0601274A
:1010700007FA06F5012C01D10C3004E0022C01D155
:10108000103000E014301AB107682F43076002E007
:101090000768AF430760F0BD1AB1838A0B438382B0
:1010A00002E0838A8B4383827047028A4FF6F07393
:1010B0001A400282028A0A430282704782894FF2F2
:1010C000FF731A40828182890A438281704721B16D
:1010D000828942F00202828104E082894FF6FD7328
:1010E0001A4082817047028A4FF6DF731A400282EB
:1010F000028A0A430282704721B1028A42F4804286
:10110000028204E0028A4BF6FF731A4002827047A3
:10111000C1F308028280704701468888C0F3080046
:101120007047818941F0010181817047028BD2B201
:101130000283028B42EA012202837047028B02F48F
:101140007F420283028B0A430283704721B1828A65
:1011500042F02002828204E0828A4FF6DF731A4056
:101160008282704721B1828A42F01002828204E0BA
:10117000828A4FF6EF731A408282704721B1828AC9
:1011800042F00802828204E0828A4FF6F7731A4026
:101190008282704721B1828942F40042828103E059
:1011A0008289C2F30E028281704721B1828A42F4A1
:1011B0000062828204E0828A4FF2FF731A408282C8
:1011C0007047828A4FF6FB731A408282828A0A43F2
:1011D0008282704721B1828A42F00202828204E058
:1011E000828A4FF6FD731A408282704702460020C1
:1011F000B1F5007F00D100BF13880B400BB1012077
:1012000000E00020704701F40072B2F5007F00D1C9
:1012100000BFCA430280704770B502460024002315
:101220000025002040F66A16B14200D100BFC1F38C
:10123000421501F01F03012606FA03F3012D02D126
:101240009689334006E0022D02D1168A334001E030
:10125000968A33400C12012606FA04F416883440AC
:1012600013B10CB1012000E0002070BD10B50022C8
:10127000002340F66A14A14200D100BF0A120124E3
:101280009440A3B2DC43048010BD0000003801404C
:101290000044004000480040004C00400050004026
:1012A00001B500BF0098411E00910028FAD108BD89
:1012B00008B501210420FFF78BFD3E48006800902F
:1012C0004FF40070ADF8000018208DF80300694657
:1012D0003948FFF7C1FA4FF48060ADF800000420F0
:1012E0008DF8030069463448FFF7B6FA08BD1FB50C
:1012F0000446FFF7DDFF01218803FFF769FD2D4B51
:101300001B1D0FCB8DE80F00009469462B48FFF79B
:1013100006FE01212948FFF78EFE012240F22551E9
:101320002648FFF794FE012240F224412348FFF7AC
:101330008EFE1FBD38B504460D462048008800903B
:1013400029462046FFF7E4FE00BF40212046FFF774
:101350004DFF0028F9D038BD70B506460C46002573
:1013600000BF615D3046FFF7E5FF6D1C605D002842
:10137000F7D100BF40213046FFF738FF0028F9D0F1
:1013800070BD2DE9F04107460D461646002405E0E4
:10139000295D3846FFF7CEFF601C84B2B442F7DB0C
:1013A00000BF40213846FFF721FF0028F9D0BDE8F3
:1013B000F0810000182100080008014000380140B9
:1013C00001B500BF0098411E00910028FAD108BD68
:1013D00038B504460D460B4800880090E1B2094834
:1013E000FFF7A8FF204638BD10B5044600BF2021F6
:1013F0000448FFF7FBFE0028F9D00248FFF78CFEF7
:1014000010BD00000038014030B50146B1F1807FC9
:1014100001D3012030BD21F07F40401E4FF0E0227B
:10142000506150170F22002807DA13071D0E384BA2
:1014300000F00F04241F1D5503E013071C0E354B4D
:101440001C5400BF00204FF0E02290610720106183
:101450000020DFE701B500BF0098411E0091002881
:10146000FAD108BD10B504464820FFF7CDFF002093
:1014700008E000BF4FF0E021096901F48031002944
:10148000F8D0401CA042F4D34FF0E020006920F0D7
:1014900001004FF0E021086110BD10B504461E4860
:1014A000FFF7B2FF002008E000BF4FF0E02109691C
:1014B00001F480310029F8D0401CA042F4D34FF051
:1014C000E020006920F001004FF0E021086110BD2C
:1014D00010B504461048FFF797FF002008E000BF52
:1014E0004FF0E021096901F480310029F8D0401C57
:1014F00004EB4401C1EBC411B0EBC10FEFD34FF0CB
:10150000E020006920F001004FF0E021086110BDEB
:1015100018ED00E000E400E040190100704700BF52
:10152000FEE700BFFEE700BFFEE700BFFEE7704733
:10153000704770477047000001B500BF0098411E1A
:1015400000910028FAD108BD00B585B001214802FC
:10155000FFF73EFC4FF40040FFF79EFB14221D49AD
:10156000684600F0C7FA69461B48FEF714FF0121E0
:101570001948FEF73CFF0120FFF7CAF81648FEF7AE
:1015800058FF00BF1448FEF759FF0028FAD112484F
:10159000FEF75EFF00BF1048FEF75FFF0028FAD19C
:1015A00005B000BD10B504460523012221460A48B6
:1015B000FEF789FF01210848FEF759FF00BF02210D
:1015C0000548FFF7C5F80128F9D10348FEF7E2FF07
:1015D00010BD00002C2100080024014001B500BF0F
:1015E0000098411E00910028FAD108BD08B50121DC
:1015F0000820FFF7EDFBFB48006800906946FA48B9
:10160000FFF72AF908BD10B500F042FA0120F749AA
:101610000860F749C1F898010A20FFF723FF00206E
:10162000F24908600A20FFF71DFF10BD10B500F059
:101630002FFA0020ED4908600A20FFF713FF012070
:10164000EB49C1F898010A20FFF70CFF0120E74998
:1016500008600A20FFF706FF10BD10B500F00FFA72
:101660000120E24908600520FFF7FCFE0120E04967
:10167000C1F898010520FFF7F5FE00240AE0601C80
:10168000C4B20A20FFF7EEFE0A2C03DDFFF7CEFFFF
:10169000012010BDD548803800680128EFD0002017
:1016A000D249091F08600520FFF7DCFE0020F0E7A3
:1016B00010B50020CD49091F086000F0E9F90020AD
:1016C000CB49C1F89C010520FFF7CCFE0120C7499A
:1016D000091F08600520FFF7C5FE0020C449C1F8B6
:1016E000980110BD10B50020C049091F086000F026
:1016F000CFF90120BE49C1F89C010520FFF7B2FED9
:101700000120BA49091F08600520FFF7ABFE002041
:10171000B749C1F8980110BD70B5044600F0B8F99A
:101720000020B249091F086000251CE004F0800079
:10173000802803D10120AD49086002E00020AB49B8
:1017400008600120A949091F08600520FFF78AFEEB
:101750000020A749C1F898010520FFF783FE600625
:10176000040E681CC5B2082DE0DB01209F49091F4B
:10177000086070BD70B5002400F081F900209B491D
:10178000091F0860002518E06006040E0120974933
:10179000091F08600520FFF765FE9548D0F81C0179
:1017A000012801D1601CC4B200209049091F0860C3
:1017B0000520FFF757FE681CC5B2082DE4DB204664
:1017C00070BD70B506460D460024FFF71CFFA02033
:1017D000FFF7A2FFFFF741FF0446012C00D170BDC7
:1017E0003046FFF799FFFFF738FF0446012C01D17F
:1017F0000220F4E72846FFF78FFFFFF72EFF04468D
:10180000012C01D10320EAE7FFF710FF0020E6E7F3
:101810002DE9F04180460D46164600242F46FFF77D
:10182000F2FEA020FFF778FFFFF717FF0446012C18
:1018300001D1BDE8F0814046FFF76EFFFFF70DFFD5
:101840000446012C01D10220F3E70AE03878FFF7C3
:1018500063FFFFF702FF0446012C01D10320E8E7F4
:101860007F1C301EA6F10101CEB2EFD1FFF7DEFEE4
:101870000020DEE770B506460D460024FFF7C3FEE4
:10188000A020FFF749FFFFF7E8FE0446012C00D136
:1018900070BD3046FFF740FFFFF7DFFE0446012C26
:1018A00001D10220F4E7FFF7AEFEA120FFF734FFDD
:1018B000FFF7D3FE0446012C01D10220E8E7FFF731
:1018C00059FF2870FFF70EFFFFF7B0FE0020DFE79B
:1018D0002DE9F04180460F46144600253E46FFF7AD
:1018E00092FEA020FFF718FFFFF7B7FE0546012D77
:1018F00001D1BDE8F0814046FFF70EFFFFF7ADFED6
:101900000546012D01D10220F3E7FFF77CFEA1205F
:10191000FFF702FFFFF7A1FE0546012D01D10320CD
:10192000E7E7601EC4B205E0FFF724FF06F8010BED
:10193000FFF7BEFE201EA4F10101CCB2F4D1FFF7E7
:1019400019FF3070FFF7CEFEFFF770FE0020D0E7E2
:101950001CB54FF4E130FFF7CAFCFFF747FEFFF775
:10196000F3FD0824A046404600F08CFB06462246C4
:1019700031460320FFF7ACFF054625B129461DA0DF
:1019800000F02EF90FE025A000F0B4FB002704E0E2
:10199000F15D2AA000F024F97F1CA742F8D3294961
:1019A0000A2000F0A5FB1020FFF7FCFD074600F021
:1019B00099F800F08DF8009000F08AF80190224626
:1019C0006946304600F096F8E2B231460320FFF750
:1019D0001FFF054625B129461BA000F001F94CE088
:1019E00046E0000048210008000C01409C81214293
:1019F000008021424572726F722072656164696E67
:101A000067204154323443303220646174612028AD
:101A1000636F64653A202564290A0000E5898DE436
:101A2000B880E6ACA1E5AD98E585A5E79A84E69592
:101A3000B0E580BCE4B8BAEFBC9A0000253032783B
:101A400020000000280000204572726F722077721B
:101A50006974696E672041543234433032206461C6
:101A600074612028636F64653A202564290A0000A8
:101A70000CA0DDE9001200F0B3F800BFFEE708B5E6
:101A800011480068009069461048FEF7E5FE08BD61
:101A900008B50D48001D0068009069460B48FEF728
:101AA000DBFE08BDE69CACE6ACA1E7949FE688901F
:101AB000E79A84E99A8FE69CBAE695B0EFBC9A253E
:101AC000782025780A00000040210008000C014021
:101AD0000649074A0868504343F239021044086037
:101AE0004008704701490860704700002C00002042
:101AF0006D4EC64140EA01039B0703D009E008C9C7
:101B0000121F08C0042AFAD203E011F8013B00F8C2
:101B1000013B521EF9D270472DE9F05F05460020C7
:101B200092469B4688460646814640241BE028464E
:101B300041464746224600F042F853465A46C01AEC
:101B4000914110D311461846224600F029F82D1A6B
:101B500067EB01084F4622460120002100F020F8E3
:101B600017EB00094E41201EA4F10104DFDC4846BA
:101B700031462A464346BDE8F09F0000064C074D1B
:101B800006E0E06840F0010394E80700984710344D
:101B9000AC42F6D3FEF7D0FA4C2100086C210008C5
:101BA000202A04DB203A00FA02F10020704791401D
:101BB000C2F1200320FA03F3194390407047202A12
:101BC00004DB203A21FA02F00021704721FA02F3E7
:101BD000D040C2F1200291400843194670470000EE
:101BE0000FB4054B10B503A9044A029800F018F889
:101BF00010BC5DF814FB0000D11300082800002081
:101C000002E008C8121F08C1002AFAD170477047C5
:101C1000002001E001C1121F002AFBD17047000023
:101C20002DE9FF4F8DB00F460546002606E025281A
:101C30000BD0DDE90F1290476D1C761C2878002828
:101C4000F5D111B03046BDE8F08F0024A246A14680
:101C50000122EC4900E0044315F8013F203B02FA61
:101C600003F00842F7D128782A2810D06FF02F020D
:101C70002878A0F13001092914D80AEB8A0102EB77
:101C8000410144F0020400EB010A6D1CF0E701CFB2
:101C90005FEA000A03D544F40054CAF1000A44F094
:101CA00002046D1C28782E2817D115F8010F44F076
:101CB00004042A280ED06FF02F022878A0F13001FA
:101CC00009290AD809EB890102EB410100EB01095E
:101CD0006D1CF2E757F8049B6D1C28786C280FD018
:101CE00006DC4C2817D068280DD06A2814D104E0EF
:101CF000742810D07A280FD10DE044F400140AE0C3
:101D000044F4801401E044F440146978814202D123
:101D100004F580146D1C6D1C2A786E2A1FD00CDC13
:101D2000632A31D004DC002A8BD0582A11D1A3E0D9
:101D3000642A68D0692A0CD165E0732A2ED004DCAD
:101D40006F2A73D0702A04D19BE0752A6FD0782A4D
:101D50006ED01046DDE90F129047761C50E1C4F3B7
:101D60000250022806D0032809D0042801CF09D048
:101D7000066045E101CFF117C0E9006140E101CF04
:101D800006803DE106703BE117F8040B8DF800007A
:101D900000208DF80100EB46012003E057F804BB5A
:101DA0004FF0FF3061074FF0000102D40DE008F161
:101DB0000101884649450FDA8045F8DB1BF8081019
:101DC0000029F4D108E008F1010188468142FADBDC
:101DD0001BF808100029F6D1DDE90F23AAEB080053
:101DE0008146214600F036F9304400EB080604E055
:101DF000DDE90F121BF8010B9047B8F10108F7D28B
:101E000021464846F7E00A21C4F302534FF0000B85
:101E10000891022B04D001CFC117032B09D00AE08F
:101E2000FF1D27F00707F7E8020108E032E01FE096
:101E300020E000B2C117042B01D140B2C117031E2C
:101E400071F1000307DA4FF0000CD0EB0C006CEBE3
:101E500001012D2302E0230504D52B238DF8243026
:101E6000012303E0E30701D02023F7E7984658E079
:101E70000A2110E010210EE010204FF0000B089016
:101E80000CE010214FF0000B44F004044FF008095F
:101E9000089103E008214FF0000B0891C4F30253AE
:101EA000022B04D001CF0021032B06D006E0FF1D3A
:101EB00027F00707F7E8020103E080B2042B00D106
:101EC000C0B24FF0000823072BD5702A07D0DDF8E9
:101ED00020C08CF0100C5CEA0B0C05D00EE0402307
:101EE0008DF82430012308E050EA010306D03023A6
:101EF0008DF824308DF8252002239846DDF820C087
:101F00008CF0080C5CEA0B0C0BD150EA010301D1F8
:101F1000630706D530238DF824304FF00108A9F16E
:101F20000109582A04D038A20B9208AA0A920BE0A1
:101F30003AA2F9E75B46089AFFF7EEFD0B9B9B5C24
:101F40000A9A521E0A92137050EA0102F2D10A98BC
:101F5000ADEB000000F1200B600702D524F48034C3
:101F600001E04FF00109D94502DDA9EB0B0000E0CB
:101F7000002000EB0B0141440890AAEB010AE003AA
:101F800006D4DDE90F232146504600F063F80644ED
:101F90004FF0000908E009A911F80900DDE90F1266
:101FA000904709F10109761CC145F4DBE0030CD52B
:101FB000DDE90F232146504600F04CF8064404E0CA
:101FC000DDE90F1230209047761C0899481E0890D2
:101FD0000029F5DC08E00A980A990078491C0A9162
:101FE000DDE90F129047761CBBF10001ABF1010B4C
:101FF000F1DC21465046DDE90F2300F019F80644D4
:102000006D1C1BE609280100303132333435363778
:102010003839616263646566000000003031323334
:1020200034353637383941424344454600000000D4
:102030002DE9F041044600251E461746880404D4C5
:1020400005E039462020B0476D1C641EF9D52846AE
:10205000BDE8F0812DE9F041044600251E4690467A
:10206000C80301D5302700E02027880404D505E007
:1020700041463846B0476D1C641EF9D52846BDE878
:10208000F0810000F0B50B30154D20F00701002461
:10209000144A0FE003688B420BD38B4205D95E1ABA
:1020A00043184768C3E9006700E04368136002C053
:1020B00004E0021D10680028ECD12046002802D15F
:1020C000286808B10020F0BD064A07481060074A9A
:1020D000121A22F00702C0E9002401202860D7E785
:1020E00034000020300000203C0000203802002096
:1020F000FFF76EB910B5044601E0FFF769F914F86F
:10210000010B04490028F8D1BDE810400A20FFF770
:102110005FB900002800002000000300000000005C
:102120000000000000000C000000000000000000A3
:102130000000000000000E00000000000100000090
:102140008000034880000310C00003106C210008C9
:102150000000002038000000001C0008A421000836
:102160003800002000060000101C000800A24A04ED
:102170000000000000000000010203040607080937
:10218000000000000102030401020304060708091D
:10219000020406080000000000000000000000002B
:0421A000000000003B
:0400000508000131BD
:00000001FF
